:10033300020B0000010E00010F00010D00010A0075
:060343000108010109019F
:1001F700C29574FFFFFE12026774FFFFFE120267CB
:1002070074FFFFFE120267D29574FFFFFE120267AA
:1002170074FFFFFE12026774FFFFFE120267C295AA
:1002270074FFFFFE12026774FFFFFE12026774FF7E
:10023700FFFE120267D29574FFFFFE12026774FF7A
:10024700FFFE12026774FFFFFE120267C29574FF7A
:10025700FFFE12026774FFFFFE12026774FFFFFEC4
:0B026700EF1FAC0670011E4C70F62269
:10034A00758901758C4CE4F58AD2AFD2A9D28C2278
:10030800E5086008750B08750CD9800DE4F50BF548
:100318000C120253D295120255120253D295E508D7
:0A03280070047F0180027F008F083F
:0103320022A8
:1002CA00E5096008750B01750CD18020D3E50C9403
:1002DA0059E50B94014007E4F50BF50C8006750B04
:1002EA0000750C2D120253D295120255120253D2E6
:0D02FA0095E50970047F0180027F008F09E7
:0103070022D3
:1002720012034A120253120255120255D29520B7A6
:100282002C7F887E1312026720B71FE50C450B6096
:100292000BD3E50C94D1E50B9401400E120308E454
:1002A200F50EF50FD293D292D29130B7FD20B5CE92
:1002B2007F887E1312026720B5091202CAD293D236
:0802C20092D29120B5B880FB37
:03000B0002000EE2
:10000E00C0E0C0D075D000C004C006C007758C4CCF
:10001E00758A00050FC3E50F941474809480401503
:10002E00750F00050EE50C450B6008E50C150C7000
:10003E0002150B050DD3E50C94D1E50B940140444C
:10004E00AF0E7E00EF7007D293C292020160EF6492
:10005E00054E70028013EF64084E7007C293D29261
:10006E00020160EF640D4E7007D293D292020160CE
:10007E00C3EF9410EE648094805003020160750EFD
:10008E0000020160D3E50C9459E50B9401400CD2AB
:10009E0093D292C291750D00020160D3E50C942D9E
:1000AE00E50B9400407AAF0D7E00EF70028068EF92
:1000BE0064024E7002804EEF64054E70028058EF5F
:1000CE0064074E7002803EEF640A4E70028048EF65
:1000DE00640C4E7002802EEF640F4E70028038EF6B
:1000EE0064114E7002801EEF64144E70028028EF71
:1000FE0064164E7002800EEF64194E70028018EF77
:10010E00641B4E7004D2938010C3EF941EEE648075
:10011E009480403E750D1EC293D292C29102016030
:10012E00D3E50C9400E50B9400400CD293D292C20E
:10013E0091750A01020160D293D292D291E50A64BE
:10014E0001700FF50A1201F7D2951202551201F73E
:0D015E00D295D007D006D004D0D0D0E0322A
:0300000002016B8F
:0C016B00787FE4F6D8FD75810F0201B228
:10017700020272E493A3F8E493A34003F68001F22A
:1001870008DFF48029E493A3F85407240CC8C33389
:10019700C4540F4420C8834004F456800146F6DF58
:1001A700E4800B0102040810204080900333E47EB2
:1001B700019360BCA3FF543F30E509541FFEE4934D
:1001C700A360010ECF54C025E060A840B8E493A314
:1001D700FAE493A3F8E493A3C8C582C8CAC583CA3F
:1001E700F0A3C8C582C8CAC583CADFE9DEE780BEF7
:0103490000B3
:00000001FF
